:100000000C9434000C943E000C943E000C943E0082
:100010000C943E000C943E000C943E000C943E0068
:100020000C943E000C943E000C943E000C943E0058
:100030000C943E000C943E000C943E000C943E0048
:100040000C943E000C943E000C943E000C943E0038
:100050000C943E000C943E000C943E000C943E0028
:100060000C943E000C943E0011241FBECFEFD8E04C
:10007000DEBFCDBF0E9455000C9464000C940000BC
:100080001092C50087E68093C4001092C00088E0FB
:100090008093C10086E08093C20008959091C000D3
:1000A00095FFFCCF8093C60008950E9440008BE42A
:1000B0000E944E002FEF83ED90E32150804090404E
:0C00C000E1F700C00000F3CFF894FFCF80
:00000001FF
