:100000000C9434000C9449000C9449000C94490061
:100010000C9449000C9449000C9449000C9449003C
:100020000C9449000C9449000C9449000C9449002C
:100030000C9449000C9449000C9449000C9449001C
:100040000C9449000C9449000C9449000C9449000C
:100050000C9449000C9449000C9449000C944900FC
:100060000C9449000C94490011241FBECFEFD8E036
:10007000DEBFCDBF11E0A0E0B1E0EEE7F1E002C0ED
:1000800005900D92AE30B107D9F70E94A2000C94F2
:10009000BD000C9400001092C50087E68093C40058
:1000A0001092C00088E18093C10086E08093C20076
:1000B00008959091C00095FFFCCF8093C6000895ED
:1000C0000F931F93CF938C01C0E003C00E9459008F
:1000D000CF5FF801EC0FF11D80818111F7CFCF9137
:1000E0001F910F9108958091C000882314F481E03E
:1000F000089580E008958091C0008823E4F78091FE
:10010000C60008958AB18C6F8AB984B1836084B9BE
:100110008BB183708BB985B18C7F85B908959BB104
:10012000282F30E0220F331F220F331F9370292B0B
:100130002BB995B19C7F8295869586958370892B86
:1001400085B908950E944B000E948200C0E00E9481
:100150007300882321F00E947B000E948F008FE3B0
:100160009CE90197F1F700C00000CF5FC43678F337
:0E01700080E091E00E946000E9CFF894FFCF9C
:0E017E00486F6C61206D756E646F0D0A000095
:00000001FF
