S00F0000506F73744C61622E7372656360
S11300000C9434000C9449000C9449000C9449005D
S11300100C9449000C9449000C9449000C94490038
S11300200C9449000C9449000C9449000C94490028
S11300300C9449000C9449000C9449000C94490018
S11300400C9449000C9449000C9449000C94490008
S11300500C9449000C9449000C9449000C944900F8
S11300600C9449000C94490011241FBECFEFD8E032
S1130070DEBFCDBF11E0A0E0B1E0EEEFF2E002C0E0
S113008005900D92A23AB107D9F70E9427010C946A
S11300907D010C9400001092C50087E68093C40093
S11300A01092C00088E18093C10086E08093C20072
S11300B008959091C00095FFFCCF8093C6000895E9
S11300C00F931F93CF938C01C0E003C00E9459008B
S11300D0CF5FF801EC0FF11D80818111F7CFCF9133
S11300E01F910F9108958091C0008823E4F78091B7
S11300F0C60008950E9473008D30E1F38A30D1F375
S1130100089580E480937C0087E880937A000895C2
S1130110ECE7F0E08081807F8083EAE7F0E0808193
S11301208064808380917A0086FDFCCF8091780082
S11301309091790008958AB18C6F8AB984B18360F3
S113014084B98BB183708BB985B18C7F85B90895DF
S11301509BB1282F30E0220F331F220F331F9370DF
S1130160292B2BB995B19C7F8295869586958370B2
S1130170892B85B908951F93CF93DF9300D000D0C6
S113018000D0CDB7DEB7AC01892B91F580E30E9496
S1130190590042C09A01ADECBCEC0E946E019695E8
S11301A0879596958795969587959C01220F331F81
S11301B0880F991F880F991F880F991F820F931F0B
S11301C09A01281B390BC901E1E0F0E0EC0FFD1F97
S11301D0E10FF11D805D80839A010E946E01AC01E4
S11301E05695479556954795569547951F5F01C077
S11301F010E04115510571F60DC0E12FF0E0319783
S113020081E090E08C0F9D1FE80FF91F80810E9410
S1130210590011501111F1CF26960FB6F894DEBF94
S11302200FBECDBFDF91CF911F91089580E091E083
S11302300E9460008CE091E00E94600084E291E002
S11302400E94600086E391E00E94600008950E948D
S11302504B000E9481000E949B000E9416010E9494
S11302607A00C82F0E9459008FE991E00E94600033
S1130270C13319F0C23381F02CC00E948800EC0114
S11302808EE491E00E946000CE010E94BB008DE9E3
S113029091E00E946000E1CF88E691E00E94600056
S11302A00E947A00C82F0E9459008FE991E00E94B1
S11302B060008C2F0E94A8008EE791E00E946000ED
S11302C08C2F90E00E94BB008DE991E00E946000B9
S11302D0C4CF8EE891E00E946000BFCFA29FB0011E
S11302E0B39FC001A39F700D811D1124911DB29F66
S11102F0700D811D1124911D0895F894FFCF07
S11302FE4D656E7520554152540D0A00312E204C19
S113030E65657220506F74656E63696F6D65747286
S113031E6F0D0A00322E20456E76696172204153AC
S113032E4349490D0A0053656C656363696F6E65D5
S113033E20756E61206F7063696F6E3A200056618E
S113034E6C6F722064656C20706F74656E63696F78
S113035E6D6574726F3A2000496E6772657365201D
S113036E756E2063617261637465723A2000415345
S113037E43494920646563696D616C3A20004F708E
S113038E63696F6E20696E76616C6964610D0A0D26
S105039E0A004F
S9030000FC
