S00F00005072654C6162322E73726563AD
S11300000C9434000C943E000C943E000C943E007E
S11300100C943E000C943E000C943E000C943E0064
S11300200C943E000C943E000C943E000C943E0054
S11300300C943E000C943E000C943E000C943E0044
S11300400C943E000C943E000C943E000C943E0034
S11300500C943E000C943E000C943E000C943E0024
S11300600C943E000C943E0011241FBECFEFD8E048
S1130070DEBFCDBF0E9475000C947E000C9400007E
S11300801092C50087E68093C4001092C00080E1FE
S11300908093C10086E08093C20008958091C000DF
S11300A08823E4F78091C60008958AB18C6F8AB9D9
S11300B084B1836084B98BB183708BB985B18C7F33
S11300C085B908959BB1282F30E0220F331F220FEA
S11300D0331F9370292B2BB995B19C7F82958695FC
S11300E086958370892B85B908950E9440000E94EB
S11300F055000E944E000E946200FBCFF894FFCF8F
S9030000FC
